{
  "_format": "hh-sol-artifact-1",
  "contractName": "POSP",
  "sourceName": "contracts/POSP_NFT.sol",
  "abi": [
    {
      "inputs": [],
      "stateMutability": "nonpayable",
      "type": "constructor"
    },
    {
      "anonymous": false,
      "inputs": [
        {
          "indexed": true,
          "internalType": "address",
          "name": "account",
          "type": "address"
        },
        {
          "indexed": true,
          "internalType": "address",
          "name": "operator",
          "type": "address"
        },
        {
          "indexed": false,
          "internalType": "bool",
          "name": "approved",
          "type": "bool"
        }
      ],
      "name": "ApprovalForAll",
      "type": "event"
    },
    {
      "anonymous": false,
      "inputs": [
        {
          "indexed": true,
          "internalType": "address",
          "name": "previousOwner",
          "type": "address"
        },
        {
          "indexed": true,
          "internalType": "address",
          "name": "newOwner",
          "type": "address"
        }
      ],
      "name": "OwnershipTransferred",
      "type": "event"
    },
    {
      "anonymous": false,
      "inputs": [
        {
          "indexed": true,
          "internalType": "address",
          "name": "operator",
          "type": "address"
        },
        {
          "indexed": true,
          "internalType": "address",
          "name": "from",
          "type": "address"
        },
        {
          "indexed": true,
          "internalType": "address",
          "name": "to",
          "type": "address"
        },
        {
          "indexed": false,
          "internalType": "uint256[]",
          "name": "ids",
          "type": "uint256[]"
        },
        {
          "indexed": false,
          "internalType": "uint256[]",
          "name": "values",
          "type": "uint256[]"
        }
      ],
      "name": "TransferBatch",
      "type": "event"
    },
    {
      "anonymous": false,
      "inputs": [
        {
          "indexed": true,
          "internalType": "address",
          "name": "operator",
          "type": "address"
        },
        {
          "indexed": true,
          "internalType": "address",
          "name": "from",
          "type": "address"
        },
        {
          "indexed": true,
          "internalType": "address",
          "name": "to",
          "type": "address"
        },
        {
          "indexed": false,
          "internalType": "uint256",
          "name": "id",
          "type": "uint256"
        },
        {
          "indexed": false,
          "internalType": "uint256",
          "name": "value",
          "type": "uint256"
        }
      ],
      "name": "TransferSingle",
      "type": "event"
    },
    {
      "anonymous": false,
      "inputs": [
        {
          "indexed": false,
          "internalType": "string",
          "name": "value",
          "type": "string"
        },
        {
          "indexed": true,
          "internalType": "uint256",
          "name": "id",
          "type": "uint256"
        }
      ],
      "name": "URI",
      "type": "event"
    },
    {
      "inputs": [
        {
          "internalType": "address",
          "name": "account",
          "type": "address"
        },
        {
          "internalType": "uint256",
          "name": "id",
          "type": "uint256"
        }
      ],
      "name": "balanceOf",
      "outputs": [
        {
          "internalType": "uint256",
          "name": "",
          "type": "uint256"
        }
      ],
      "stateMutability": "view",
      "type": "function"
    },
    {
      "inputs": [
        {
          "internalType": "address[]",
          "name": "accounts",
          "type": "address[]"
        },
        {
          "internalType": "uint256[]",
          "name": "ids",
          "type": "uint256[]"
        }
      ],
      "name": "balanceOfBatch",
      "outputs": [
        {
          "internalType": "uint256[]",
          "name": "",
          "type": "uint256[]"
        }
      ],
      "stateMutability": "view",
      "type": "function"
    },
    {
      "inputs": [
        {
          "internalType": "address",
          "name": "account",
          "type": "address"
        },
        {
          "internalType": "address",
          "name": "operator",
          "type": "address"
        }
      ],
      "name": "isApprovedForAll",
      "outputs": [
        {
          "internalType": "bool",
          "name": "",
          "type": "bool"
        }
      ],
      "stateMutability": "view",
      "type": "function"
    },
    {
      "inputs": [],
      "name": "isPublicMintEnabled",
      "outputs": [
        {
          "internalType": "bool",
          "name": "",
          "type": "bool"
        }
      ],
      "stateMutability": "view",
      "type": "function"
    },
    {
      "inputs": [
        {
          "internalType": "uint256",
          "name": "id",
          "type": "uint256"
        },
        {
          "internalType": "uint256",
          "name": "amount",
          "type": "uint256"
        }
      ],
      "name": "mint",
      "outputs": [],
      "stateMutability": "nonpayable",
      "type": "function"
    },
    {
      "inputs": [],
      "name": "owner",
      "outputs": [
        {
          "internalType": "address",
          "name": "",
          "type": "address"
        }
      ],
      "stateMutability": "view",
      "type": "function"
    },
    {
      "inputs": [],
      "name": "renounceOwnership",
      "outputs": [],
      "stateMutability": "nonpayable",
      "type": "function"
    },
    {
      "inputs": [
        {
          "internalType": "address",
          "name": "from",
          "type": "address"
        },
        {
          "internalType": "address",
          "name": "to",
          "type": "address"
        },
        {
          "internalType": "uint256[]",
          "name": "ids",
          "type": "uint256[]"
        },
        {
          "internalType": "uint256[]",
          "name": "amounts",
          "type": "uint256[]"
        },
        {
          "internalType": "bytes",
          "name": "data",
          "type": "bytes"
        }
      ],
      "name": "safeBatchTransferFrom",
      "outputs": [],
      "stateMutability": "nonpayable",
      "type": "function"
    },
    {
      "inputs": [
        {
          "internalType": "address",
          "name": "from",
          "type": "address"
        },
        {
          "internalType": "address",
          "name": "to",
          "type": "address"
        },
        {
          "internalType": "uint256",
          "name": "id",
          "type": "uint256"
        },
        {
          "internalType": "uint256",
          "name": "amount",
          "type": "uint256"
        },
        {
          "internalType": "bytes",
          "name": "data",
          "type": "bytes"
        }
      ],
      "name": "safeTransferFrom",
      "outputs": [],
      "stateMutability": "nonpayable",
      "type": "function"
    },
    {
      "inputs": [
        {
          "internalType": "address",
          "name": "recepient",
          "type": "address"
        },
        {
          "internalType": "uint256",
          "name": "id",
          "type": "uint256"
        }
      ],
      "name": "sendtoReciepient",
      "outputs": [],
      "stateMutability": "nonpayable",
      "type": "function"
    },
    {
      "inputs": [
        {
          "internalType": "address",
          "name": "operator",
          "type": "address"
        },
        {
          "internalType": "bool",
          "name": "approved",
          "type": "bool"
        }
      ],
      "name": "setApprovalForAll",
      "outputs": [],
      "stateMutability": "nonpayable",
      "type": "function"
    },
    {
      "inputs": [
        {
          "internalType": "bool",
          "name": "isPublicMintEnabled_",
          "type": "bool"
        }
      ],
      "name": "setIsPublicMintEnabled",
      "outputs": [],
      "stateMutability": "nonpayable",
      "type": "function"
    },
    {
      "inputs": [
        {
          "internalType": "string",
          "name": "newuri",
          "type": "string"
        }
      ],
      "name": "setURI",
      "outputs": [],
      "stateMutability": "nonpayable",
      "type": "function"
    },
    {
      "inputs": [
        {
          "internalType": "bytes4",
          "name": "interfaceId",
          "type": "bytes4"
        }
      ],
      "name": "supportsInterface",
      "outputs": [
        {
          "internalType": "bool",
          "name": "",
          "type": "bool"
        }
      ],
      "stateMutability": "view",
      "type": "function"
    },
    {
      "inputs": [
        {
          "internalType": "address",
          "name": "newOwner",
          "type": "address"
        }
      ],
      "name": "transferOwnership",
      "outputs": [],
      "stateMutability": "nonpayable",
      "type": "function"
    },
    {
      "inputs": [
        {
          "internalType": "uint256",
          "name": "",
          "type": "uint256"
        }
      ],
      "name": "uri",
      "outputs": [
        {
          "internalType": "string",
          "name": "",
          "type": "string"
        }
      ],
      "stateMutability": "view",
      "type": "function"
    }
  ],
  "bytecode": "0x60806040523480156200001157600080fd5b506040518060800160405280605a815260200162003359605a91396200003d816200006460201b60201c565b506200005e620000526200008060201b60201c565b6200008860201b60201c565b62000263565b80600290805190602001906200007c9291906200014e565b5050565b600033905090565b6000600360009054906101000a900473ffffffffffffffffffffffffffffffffffffffff16905081600360006101000a81548173ffffffffffffffffffffffffffffffffffffffff021916908373ffffffffffffffffffffffffffffffffffffffff1602179055508173ffffffffffffffffffffffffffffffffffffffff168173ffffffffffffffffffffffffffffffffffffffff167f8be0079c531659141344cd1fd0a4f28419497f9722a3daafe3b4186f6b6457e060405160405180910390a35050565b8280546200015c90620001fe565b90600052602060002090601f016020900481019282620001805760008555620001cc565b82601f106200019b57805160ff1916838001178555620001cc565b82800160010185558215620001cc579182015b82811115620001cb578251825591602001919060010190620001ae565b5b509050620001db9190620001df565b5090565b5b80821115620001fa576000816000905550600101620001e0565b5090565b600060028204905060018216806200021757607f821691505b602082108114156200022e576200022d62000234565b5b50919050565b7f4e487b7100000000000000000000000000000000000000000000000000000000600052602260045260246000fd5b6130e680620002736000396000f3fe608060405234801561001057600080fd5b50600436106100ff5760003560e01c80634e1273f411610097578063e985e9c511610066578063e985e9c514610296578063f242432a146102c6578063f2fde38b146102e2578063f6638a48146102fe576100ff565b80634e1273f414610222578063715018a6146102525780638da5cb5b1461025c578063a22cb4651461027a576100ff565b80630e89341c116100d35780630e89341c1461019e5780631b2ef1ca146101ce5780632373ac22146101ea5780632eb2c2d614610206576100ff565b8062fdd58e146101045780630116bc2d1461013457806301ffc9a71461015257806302fe530514610182575b600080fd5b61011e60048036038101906101199190612001565b61031a565b60405161012b91906127c8565b60405180910390f35b61013c6103e3565b60405161014991906125eb565b60405180910390f35b61016c600480360381019061016791906120d2565b6103f6565b60405161017991906125eb565b60405180910390f35b61019c60048036038101906101979190612124565b6104d8565b005b6101b860048036038101906101b39190612165565b610560565b6040516101c59190612606565b60405180910390f35b6101e860048036038101906101e3919061218e565b6105f4565b005b61020460048036038101906101ff91906120a9565b610613565b005b610220600480360381019061021b9190611e77565b6106ac565b005b61023c6004803603810190610237919061203d565b61074d565b6040516102499190612592565b60405180910390f35b61025a6108fe565b005b610264610986565b60405161027191906124b5565b60405180910390f35b610294600480360381019061028f9190611fc5565b6109b0565b005b6102b060048036038101906102ab9190611e3b565b6109c6565b6040516102bd91906125eb565b60405180910390f35b6102e060048036038101906102db9190611f36565b610a5a565b005b6102fc60048036038101906102f79190611e12565b610afb565b005b61031860048036038101906103139190612001565b610bf3565b005b60008073ffffffffffffffffffffffffffffffffffffffff168373ffffffffffffffffffffffffffffffffffffffff16141561038b576040517f08c379a000000000000000000000000000000000000000000000000000000000815260040161038290612668565b60405180910390fd5b60008083815260200190815260200160002060008473ffffffffffffffffffffffffffffffffffffffff1673ffffffffffffffffffffffffffffffffffffffff16815260200190815260200160002054905092915050565b600360149054906101000a900460ff1681565b60007fd9b67a26000000000000000000000000000000000000000000000000000000007bffffffffffffffffffffffffffffffffffffffffffffffffffffffff1916827bffffffffffffffffffffffffffffffffffffffffffffffffffffffff191614806104c157507f0e89341c000000000000000000000000000000000000000000000000000000007bffffffffffffffffffffffffffffffffffffffffffffffffffffffff1916827bffffffffffffffffffffffffffffffffffffffffffffffffffffffff1916145b806104d157506104d082610c14565b5b9050919050565b6104e0610c7e565b73ffffffffffffffffffffffffffffffffffffffff166104fe610986565b73ffffffffffffffffffffffffffffffffffffffff1614610554576040517f08c379a000000000000000000000000000000000000000000000000000000000815260040161054b90612728565b60405180910390fd5b61055d81610c86565b50565b60606002805461056f90612a68565b80601f016020809104026020016040519081016040528092919081815260200182805461059b90612a68565b80156105e85780601f106105bd576101008083540402835291602001916105e8565b820191906000526020600020905b8154815290600101906020018083116105cb57829003601f168201915b50505050509050919050565b61060f33838360405180602001604052806000815250610ca0565b5050565b61061b610c7e565b73ffffffffffffffffffffffffffffffffffffffff16610639610986565b73ffffffffffffffffffffffffffffffffffffffff161461068f576040517f08c379a000000000000000000000000000000000000000000000000000000000815260040161068690612728565b60405180910390fd5b80600360146101000a81548160ff02191690831515021790555050565b6106b4610c7e565b73ffffffffffffffffffffffffffffffffffffffff168573ffffffffffffffffffffffffffffffffffffffff1614806106fa57506106f9856106f4610c7e565b6109c6565b5b610739576040517f08c379a0000000000000000000000000000000000000000000000000000000008152600401610730906126e8565b60405180910390fd5b6107468585858585610e36565b5050505050565b60608151835114610793576040517f08c379a000000000000000000000000000000000000000000000000000000000815260040161078a90612768565b60405180910390fd5b6000835167ffffffffffffffff8111156107d6577f4e487b7100000000000000000000000000000000000000000000000000000000600052604160045260246000fd5b6040519080825280602002602001820160405280156108045781602001602082028036833780820191505090505b50905060005b84518110156108f35761089d85828151811061084f577f4e487b7100000000000000000000000000000000000000000000000000000000600052603260045260246000fd5b6020026020010151858381518110610890577f4e487b7100000000000000000000000000000000000000000000000000000000600052603260045260246000fd5b602002602001015161031a565b8282815181106108d6577f4e487b7100000000000000000000000000000000000000000000000000000000600052603260045260246000fd5b602002602001018181525050806108ec90612acb565b905061080a565b508091505092915050565b610906610c7e565b73ffffffffffffffffffffffffffffffffffffffff16610924610986565b73ffffffffffffffffffffffffffffffffffffffff161461097a576040517f08c379a000000000000000000000000000000000000000000000000000000000815260040161097190612728565b60405180910390fd5b6109846000611196565b565b6000600360009054906101000a900473ffffffffffffffffffffffffffffffffffffffff16905090565b6109c26109bb610c7e565b838361125c565b5050565b6000600160008473ffffffffffffffffffffffffffffffffffffffff1673ffffffffffffffffffffffffffffffffffffffff16815260200190815260200160002060008373ffffffffffffffffffffffffffffffffffffffff1673ffffffffffffffffffffffffffffffffffffffff16815260200190815260200160002060009054906101000a900460ff16905092915050565b610a62610c7e565b73ffffffffffffffffffffffffffffffffffffffff168573ffffffffffffffffffffffffffffffffffffffff161480610aa85750610aa785610aa2610c7e565b6109c6565b5b610ae7576040517f08c379a0000000000000000000000000000000000000000000000000000000008152600401610ade906126a8565b60405180910390fd5b610af485858585856113c9565b5050505050565b610b03610c7e565b73ffffffffffffffffffffffffffffffffffffffff16610b21610986565b73ffffffffffffffffffffffffffffffffffffffff1614610b77576040517f08c379a0000000000000000000000000000000000000000000000000000000008152600401610b6e90612728565b60405180910390fd5b600073ffffffffffffffffffffffffffffffffffffffff168173ffffffffffffffffffffffffffffffffffffffff161415610be7576040517f08c379a0000000000000000000000000000000000000000000000000000000008152600401610bde90612688565b60405180910390fd5b610bf081611196565b50565b610c10338383600160405180602001604052806000815250610a5a565b5050565b60007f01ffc9a7000000000000000000000000000000000000000000000000000000007bffffffffffffffffffffffffffffffffffffffffffffffffffffffff1916827bffffffffffffffffffffffffffffffffffffffffffffffffffffffff1916149050919050565b600033905090565b8060029080519060200190610c9c929190611b0a565b5050565b600073ffffffffffffffffffffffffffffffffffffffff168473ffffffffffffffffffffffffffffffffffffffff161415610d10576040517f08c379a0000000000000000000000000000000000000000000000000000000008152600401610d07906127a8565b60405180910390fd5b6000610d1a610c7e565b9050610d3b81600087610d2c8861164b565b610d358861164b565b87611711565b8260008086815260200190815260200160002060008773ffffffffffffffffffffffffffffffffffffffff1673ffffffffffffffffffffffffffffffffffffffff1681526020019081526020016000206000828254610d9a919061295c565b925050819055508473ffffffffffffffffffffffffffffffffffffffff16600073ffffffffffffffffffffffffffffffffffffffff168273ffffffffffffffffffffffffffffffffffffffff167fc3d58168c5ae7397731d063d5bbf3d657854427343f4c083240f7aacaa2d0f628787604051610e189291906127e3565b60405180910390a4610e2f81600087878787611719565b5050505050565b8151835114610e7a576040517f08c379a0000000000000000000000000000000000000000000000000000000008152600401610e7190612788565b60405180910390fd5b600073ffffffffffffffffffffffffffffffffffffffff168473ffffffffffffffffffffffffffffffffffffffff161415610eea576040517f08c379a0000000000000000000000000000000000000000000000000000000008152600401610ee1906126c8565b60405180910390fd5b6000610ef4610c7e565b9050610f04818787878787611711565b60005b8451811015611101576000858281518110610f4b577f4e487b7100000000000000000000000000000000000000000000000000000000600052603260045260246000fd5b602002602001015190506000858381518110610f90577f4e487b7100000000000000000000000000000000000000000000000000000000600052603260045260246000fd5b60200260200101519050600080600084815260200190815260200160002060008b73ffffffffffffffffffffffffffffffffffffffff1673ffffffffffffffffffffffffffffffffffffffff16815260200190815260200160002054905081811015611031576040517f08c379a000000000000000000000000000000000000000000000000000000000815260040161102890612708565b60405180910390fd5b81810360008085815260200190815260200160002060008c73ffffffffffffffffffffffffffffffffffffffff1673ffffffffffffffffffffffffffffffffffffffff168152602001908152602001600020819055508160008085815260200190815260200160002060008b73ffffffffffffffffffffffffffffffffffffffff1673ffffffffffffffffffffffffffffffffffffffff16815260200190815260200160002060008282546110e6919061295c565b92505081905550505050806110fa90612acb565b9050610f07565b508473ffffffffffffffffffffffffffffffffffffffff168673ffffffffffffffffffffffffffffffffffffffff168273ffffffffffffffffffffffffffffffffffffffff167f4a39dc06d4c0dbc64b70af90fd698a233a518aa5d07e595d983b8c0526c8f7fb87876040516111789291906125b4565b60405180910390a461118e818787878787611900565b505050505050565b6000600360009054906101000a900473ffffffffffffffffffffffffffffffffffffffff16905081600360006101000a81548173ffffffffffffffffffffffffffffffffffffffff021916908373ffffffffffffffffffffffffffffffffffffffff1602179055508173ffffffffffffffffffffffffffffffffffffffff168173ffffffffffffffffffffffffffffffffffffffff167f8be0079c531659141344cd1fd0a4f28419497f9722a3daafe3b4186f6b6457e060405160405180910390a35050565b8173ffffffffffffffffffffffffffffffffffffffff168373ffffffffffffffffffffffffffffffffffffffff1614156112cb576040517f08c379a00000000000000000000000000000000000000000000000000000000081526004016112c290612748565b60405180910390fd5b80600160008573ffffffffffffffffffffffffffffffffffffffff1673ffffffffffffffffffffffffffffffffffffffff16815260200190815260200160002060008473ffffffffffffffffffffffffffffffffffffffff1673ffffffffffffffffffffffffffffffffffffffff16815260200190815260200160002060006101000a81548160ff0219169083151502179055508173ffffffffffffffffffffffffffffffffffffffff168373ffffffffffffffffffffffffffffffffffffffff167f17307eab39ab6107e8899845ad3d59bd9653f200f220920489ca2b5937696c31836040516113bc91906125eb565b60405180910390a3505050565b600073ffffffffffffffffffffffffffffffffffffffff168473ffffffffffffffffffffffffffffffffffffffff161415611439576040517f08c379a0000000000000000000000000000000000000000000000000000000008152600401611430906126c8565b60405180910390fd5b6000611443610c7e565b90506114638187876114548861164b565b61145d8861164b565b87611711565b600080600086815260200190815260200160002060008873ffffffffffffffffffffffffffffffffffffffff1673ffffffffffffffffffffffffffffffffffffffff168152602001908152602001600020549050838110156114fa576040517f08c379a00000000000000000000000000000000000000000000000000000000081526004016114f190612708565b60405180910390fd5b83810360008087815260200190815260200160002060008973ffffffffffffffffffffffffffffffffffffffff1673ffffffffffffffffffffffffffffffffffffffff168152602001908152602001600020819055508360008087815260200190815260200160002060008873ffffffffffffffffffffffffffffffffffffffff1673ffffffffffffffffffffffffffffffffffffffff16815260200190815260200160002060008282546115af919061295c565b925050819055508573ffffffffffffffffffffffffffffffffffffffff168773ffffffffffffffffffffffffffffffffffffffff168373ffffffffffffffffffffffffffffffffffffffff167fc3d58168c5ae7397731d063d5bbf3d657854427343f4c083240f7aacaa2d0f62888860405161162c9291906127e3565b60405180910390a4611642828888888888611719565b50505050505050565b60606000600167ffffffffffffffff811115611690577f4e487b7100000000000000000000000000000000000000000000000000000000600052604160045260246000fd5b6040519080825280602002602001820160405280156116be5781602001602082028036833780820191505090505b50905082816000815181106116fc577f4e487b7100000000000000000000000000000000000000000000000000000000600052603260045260246000fd5b60200260200101818152505080915050919050565b505050505050565b6117388473ffffffffffffffffffffffffffffffffffffffff16611ae7565b156118f8578373ffffffffffffffffffffffffffffffffffffffff1663f23a6e6187878686866040518663ffffffff1660e01b815260040161177e959493929190612538565b602060405180830381600087803b15801561179857600080fd5b505af19250505080156117c957506040513d601f19601f820116820180604052508101906117c691906120fb565b60015b61186f576117d5612ba1565b806308c379a0141561183257506117ea612fbe565b806117f55750611834565b806040517f08c379a00000000000000000000000000000000000000000000000000000000081526004016118299190612606565b60405180910390fd5b505b6040517f08c379a000000000000000000000000000000000000000000000000000000000815260040161186690612628565b60405180910390fd5b63f23a6e6160e01b7bffffffffffffffffffffffffffffffffffffffffffffffffffffffff1916817bffffffffffffffffffffffffffffffffffffffffffffffffffffffff1916146118f6576040517f08c379a00000000000000000000000000000000000000000000000000000000081526004016118ed90612648565b60405180910390fd5b505b505050505050565b61191f8473ffffffffffffffffffffffffffffffffffffffff16611ae7565b15611adf578373ffffffffffffffffffffffffffffffffffffffff1663bc197c8187878686866040518663ffffffff1660e01b81526004016119659594939291906124d0565b602060405180830381600087803b15801561197f57600080fd5b505af19250505080156119b057506040513d601f19601f820116820180604052508101906119ad91906120fb565b60015b611a56576119bc612ba1565b806308c379a01415611a1957506119d1612fbe565b806119dc5750611a1b565b806040517f08c379a0000000000000000000000000000000000000000000000000000000008152600401611a109190612606565b60405180910390fd5b505b6040517f08c379a0000000000000000000000000000000000000000000000000000000008152600401611a4d90612628565b60405180910390fd5b63bc197c8160e01b7bffffffffffffffffffffffffffffffffffffffffffffffffffffffff1916817bffffffffffffffffffffffffffffffffffffffffffffffffffffffff191614611add576040517f08c379a0000000000000000000000000000000000000000000000000000000008152600401611ad490612648565b60405180910390fd5b505b505050505050565b6000808273ffffffffffffffffffffffffffffffffffffffff163b119050919050565b828054611b1690612a68565b90600052602060002090601f016020900481019282611b385760008555611b7f565b82601f10611b5157805160ff1916838001178555611b7f565b82800160010185558215611b7f579182015b82811115611b7e578251825591602001919060010190611b63565b5b509050611b8c9190611b90565b5090565b5b80821115611ba9576000816000905550600101611b91565b5090565b6000611bc0611bbb84612831565b61280c565b90508083825260208201905082856020860282011115611bdf57600080fd5b60005b85811015611c0f5781611bf58882611d01565b845260208401935060208301925050600181019050611be2565b5050509392505050565b6000611c2c611c278461285d565b61280c565b90508083825260208201905082856020860282011115611c4b57600080fd5b60005b85811015611c7b5781611c618882611dfd565b845260208401935060208301925050600181019050611c4e565b5050509392505050565b6000611c98611c9384612889565b61280c565b905082815260208101848484011115611cb057600080fd5b611cbb848285612a26565b509392505050565b6000611cd6611cd1846128ba565b61280c565b905082815260208101848484011115611cee57600080fd5b611cf9848285612a26565b509392505050565b600081359050611d1081613054565b92915050565b600082601f830112611d2757600080fd5b8135611d37848260208601611bad565b91505092915050565b600082601f830112611d5157600080fd5b8135611d61848260208601611c19565b91505092915050565b600081359050611d798161306b565b92915050565b600081359050611d8e81613082565b92915050565b600081519050611da381613082565b92915050565b600082601f830112611dba57600080fd5b8135611dca848260208601611c85565b91505092915050565b600082601f830112611de457600080fd5b8135611df4848260208601611cc3565b91505092915050565b600081359050611e0c81613099565b92915050565b600060208284031215611e2457600080fd5b6000611e3284828501611d01565b91505092915050565b60008060408385031215611e4e57600080fd5b6000611e5c85828601611d01565b9250506020611e6d85828601611d01565b9150509250929050565b600080600080600060a08688031215611e8f57600080fd5b6000611e9d88828901611d01565b9550506020611eae88828901611d01565b945050604086013567ffffffffffffffff811115611ecb57600080fd5b611ed788828901611d40565b935050606086013567ffffffffffffffff811115611ef457600080fd5b611f0088828901611d40565b925050608086013567ffffffffffffffff811115611f1d57600080fd5b611f2988828901611da9565b9150509295509295909350565b600080600080600060a08688031215611f4e57600080fd5b6000611f5c88828901611d01565b9550506020611f6d88828901611d01565b9450506040611f7e88828901611dfd565b9350506060611f8f88828901611dfd565b925050608086013567ffffffffffffffff811115611fac57600080fd5b611fb888828901611da9565b9150509295509295909350565b60008060408385031215611fd857600080fd5b6000611fe685828601611d01565b9250506020611ff785828601611d6a565b9150509250929050565b6000806040838503121561201457600080fd5b600061202285828601611d01565b925050602061203385828601611dfd565b9150509250929050565b6000806040838503121561205057600080fd5b600083013567ffffffffffffffff81111561206a57600080fd5b61207685828601611d16565b925050602083013567ffffffffffffffff81111561209357600080fd5b61209f85828601611d40565b9150509250929050565b6000602082840312156120bb57600080fd5b60006120c984828501611d6a565b91505092915050565b6000602082840312156120e457600080fd5b60006120f284828501611d7f565b91505092915050565b60006020828403121561210d57600080fd5b600061211b84828501611d94565b91505092915050565b60006020828403121561213657600080fd5b600082013567ffffffffffffffff81111561215057600080fd5b61215c84828501611dd3565b91505092915050565b60006020828403121561217757600080fd5b600061218584828501611dfd565b91505092915050565b600080604083850312156121a157600080fd5b60006121af85828601611dfd565b92505060206121c085828601611dfd565b9150509250929050565b60006121d68383612497565b60208301905092915050565b6121eb816129b2565b82525050565b60006121fc826128fb565b6122068185612929565b9350612211836128eb565b8060005b8381101561224257815161222988826121ca565b97506122348361291c565b925050600181019050612215565b5085935050505092915050565b612258816129c4565b82525050565b600061226982612906565b612273818561293a565b9350612283818560208601612a35565b61228c81612bc3565b840191505092915050565b60006122a282612911565b6122ac818561294b565b93506122bc818560208601612a35565b6122c581612bc3565b840191505092915050565b60006122dd60348361294b565b91506122e882612be1565b604082019050919050565b600061230060288361294b565b915061230b82612c30565b604082019050919050565b6000612323602b8361294b565b915061232e82612c7f565b604082019050919050565b600061234660268361294b565b915061235182612cce565b604082019050919050565b600061236960298361294b565b915061237482612d1d565b604082019050919050565b600061238c60258361294b565b915061239782612d6c565b604082019050919050565b60006123af60328361294b565b91506123ba82612dbb565b604082019050919050565b60006123d2602a8361294b565b91506123dd82612e0a565b604082019050919050565b60006123f560208361294b565b915061240082612e59565b602082019050919050565b600061241860298361294b565b915061242382612e82565b604082019050919050565b600061243b60298361294b565b915061244682612ed1565b604082019050919050565b600061245e60288361294b565b915061246982612f20565b604082019050919050565b600061248160218361294b565b915061248c82612f6f565b604082019050919050565b6124a081612a1c565b82525050565b6124af81612a1c565b82525050565b60006020820190506124ca60008301846121e2565b92915050565b600060a0820190506124e560008301886121e2565b6124f260208301876121e2565b818103604083015261250481866121f1565b9050818103606083015261251881856121f1565b9050818103608083015261252c818461225e565b90509695505050505050565b600060a08201905061254d60008301886121e2565b61255a60208301876121e2565b61256760408301866124a6565b61257460608301856124a6565b8181036080830152612586818461225e565b90509695505050505050565b600060208201905081810360008301526125ac81846121f1565b905092915050565b600060408201905081810360008301526125ce81856121f1565b905081810360208301526125e281846121f1565b90509392505050565b6000602082019050612600600083018461224f565b92915050565b600060208201905081810360008301526126208184612297565b905092915050565b60006020820190508181036000830152612641816122d0565b9050919050565b60006020820190508181036000830152612661816122f3565b9050919050565b6000602082019050818103600083015261268181612316565b9050919050565b600060208201905081810360008301526126a181612339565b9050919050565b600060208201905081810360008301526126c18161235c565b9050919050565b600060208201905081810360008301526126e18161237f565b9050919050565b60006020820190508181036000830152612701816123a2565b9050919050565b60006020820190508181036000830152612721816123c5565b9050919050565b60006020820190508181036000830152612741816123e8565b9050919050565b600060208201905081810360008301526127618161240b565b9050919050565b600060208201905081810360008301526127818161242e565b9050919050565b600060208201905081810360008301526127a181612451565b9050919050565b600060208201905081810360008301526127c181612474565b9050919050565b60006020820190506127dd60008301846124a6565b92915050565b60006040820190506127f860008301856124a6565b61280560208301846124a6565b9392505050565b6000612816612827565b90506128228282612a9a565b919050565b6000604051905090565b600067ffffffffffffffff82111561284c5761284b612b72565b5b602082029050602081019050919050565b600067ffffffffffffffff82111561287857612877612b72565b5b602082029050602081019050919050565b600067ffffffffffffffff8211156128a4576128a3612b72565b5b6128ad82612bc3565b9050602081019050919050565b600067ffffffffffffffff8211156128d5576128d4612b72565b5b6128de82612bc3565b9050602081019050919050565b6000819050602082019050919050565b600081519050919050565b600081519050919050565b600081519050919050565b6000602082019050919050565b600082825260208201905092915050565b600082825260208201905092915050565b600082825260208201905092915050565b600061296782612a1c565b915061297283612a1c565b9250827fffffffffffffffffffffffffffffffffffffffffffffffffffffffffffffffff038211156129a7576129a6612b14565b5b828201905092915050565b60006129bd826129fc565b9050919050565b60008115159050919050565b60007fffffffff0000000000000000000000000000000000000000000000000000000082169050919050565b600073ffffffffffffffffffffffffffffffffffffffff82169050919050565b6000819050919050565b82818337600083830152505050565b60005b83811015612a53578082015181840152602081019050612a38565b83811115612a62576000848401525b50505050565b60006002820490506001821680612a8057607f821691505b60208210811415612a9457612a93612b43565b5b50919050565b612aa382612bc3565b810181811067ffffffffffffffff82111715612ac257612ac1612b72565b5b80604052505050565b6000612ad682612a1c565b91507fffffffffffffffffffffffffffffffffffffffffffffffffffffffffffffffff821415612b0957612b08612b14565b5b600182019050919050565b7f4e487b7100000000000000000000000000000000000000000000000000000000600052601160045260246000fd5b7f4e487b7100000000000000000000000000000000000000000000000000000000600052602260045260246000fd5b7f4e487b7100000000000000000000000000000000000000000000000000000000600052604160045260246000fd5b600060033d1115612bc05760046000803e612bbd600051612bd4565b90505b90565b6000601f19601f8301169050919050565b60008160e01c9050919050565b7f455243313135353a207472616e7366657220746f206e6f6e204552433131353560008201527f526563656976657220696d706c656d656e746572000000000000000000000000602082015250565b7f455243313135353a204552433131353552656365697665722072656a6563746560008201527f6420746f6b656e73000000000000000000000000000000000000000000000000602082015250565b7f455243313135353a2062616c616e636520717565727920666f7220746865207a60008201527f65726f2061646472657373000000000000000000000000000000000000000000602082015250565b7f4f776e61626c653a206e6577206f776e657220697320746865207a65726f206160008201527f6464726573730000000000000000000000000000000000000000000000000000602082015250565b7f455243313135353a2063616c6c6572206973206e6f74206f776e6572206e6f7260008201527f20617070726f7665640000000000000000000000000000000000000000000000602082015250565b7f455243313135353a207472616e7366657220746f20746865207a65726f20616460008201527f6472657373000000000000000000000000000000000000000000000000000000602082015250565b7f455243313135353a207472616e736665722063616c6c6572206973206e6f742060008201527f6f776e6572206e6f7220617070726f7665640000000000000000000000000000602082015250565b7f455243313135353a20696e73756666696369656e742062616c616e636520666f60008201527f72207472616e7366657200000000000000000000000000000000000000000000602082015250565b7f4f776e61626c653a2063616c6c6572206973206e6f7420746865206f776e6572600082015250565b7f455243313135353a2073657474696e6720617070726f76616c2073746174757360008201527f20666f722073656c660000000000000000000000000000000000000000000000602082015250565b7f455243313135353a206163636f756e747320616e6420696473206c656e67746860008201527f206d69736d617463680000000000000000000000000000000000000000000000602082015250565b7f455243313135353a2069647320616e6420616d6f756e7473206c656e6774682060008201527f6d69736d61746368000000000000000000000000000000000000000000000000602082015250565b7f455243313135353a206d696e7420746f20746865207a65726f2061646472657360008201527f7300000000000000000000000000000000000000000000000000000000000000602082015250565b600060443d1015612fce57613051565b612fd6612827565b60043d036004823e80513d602482011167ffffffffffffffff82111715612ffe575050613051565b808201805167ffffffffffffffff81111561301c5750505050613051565b80602083010160043d038501811115613039575050505050613051565b61304882602001850186612a9a565b82955050505050505b90565b61305d816129b2565b811461306857600080fd5b50565b613074816129c4565b811461307f57600080fd5b50565b61308b816129d0565b811461309657600080fd5b50565b6130a281612a1c565b81146130ad57600080fd5b5056fea26469706673582212204ed664da821519df2af0870ba490e0551dcc0d99b70f9b3a114af6d76afa329764736f6c6343000804003368747470733a2f2f676174657761792e70696e6174612e636c6f75642f697066732f516d584d764263436d6357663941546d366e4c3233674b4b4c704c7442313238477a54375143784d3348756f50382f7b69647d2e6a736f6e",
  "linkReferences": {},
  "deployedLinkReferences": {}
}